:107E0000112484B714BE982F9D7009F0D6D085E058
:107E100080938100589A82E08093C00088E180932B
:107E2000C10086E08093C20080E18093C4008EE0B0
:107E3000AFD0209A82E020E33CEF91E030938500C0
:107E40002093840096BBB09BFECF189AA8958150D2
:107E5000A9F7C0E0D0E093E0F92EEE24E39425E00A
:107E6000D22E31E1C32E86D0813471F483D0182F05
:107E700095D0123811F482E005C0113811F486E073
:107E800001C083E070D06CC0823411F484E103C07F
:107E9000853419F485E08AD063C0853541F46AD011
:107EA000C82F68D0D0E0D82BCC0FDD1F58C0863546
:107EB00021F484E07BD080E0E5CF843609F032C045
:107EC00059D058D0B82E56D0A82E00E011E052D08C
:107ED000F80181938F01BE12FACF60D0F5E4AF12A2
:107EE00001C0FFCFFE01F7BEE89507B600FCFDCF4D
:107EF000FE01A0E0B1E08C9111962C91119790E0D9
:107F0000922B0C01E7BEE895112432961296BA1214
:107F1000F2CFFE01D7BEE89507B600FCFDCFC7BE85
:107F2000E8951EC0843771F425D024D0B82E22D015
:107F300035D08E01F80185918F0115D0BA94B1101A
:107F4000F9CF0EC0853739F429D08EE10CD085E900
:107F50000AD086E197CF813511F488E019D01ED080
:107F600080E101D080CF9091C00095FFFCCF80933D
:107F7000C6000895189A8091C00087FFFCCF8091B9
:107F8000C00084FD01C0A8958091C600189A08958C
:107F9000E0E6F0E098E1908380830895EBDF8032A3
:107FA00019F088E0F5DFFFCF84E1DDCFCF93C82F54
:107FB000E1DFC150E9F7CF91F1CF282E80E0E8DF73
:067FC000E0E0FF27099438
:027FFE00020679
:0400000300007E007B
:00000001FF
